{
  "contractName": "Ads",
  "abi": [
    {
      "anonymous": false,
      "inputs": [
        {
          "indexed": false,
          "internalType": "uint256",
          "name": "_id",
          "type": "uint256"
        },
        {
          "indexed": true,
          "internalType": "address",
          "name": "_author",
          "type": "address"
        }
      ],
      "name": "CampaignCreated",
      "type": "event"
    },
    {
      "anonymous": false,
      "inputs": [
        {
          "indexed": false,
          "internalType": "uint256",
          "name": "_campaignId",
          "type": "uint256"
        },
        {
          "indexed": true,
          "internalType": "address",
          "name": "follower",
          "type": "address"
        }
      ],
      "name": "CampaignFollowed",
      "type": "event"
    },
    {
      "constant": false,
      "inputs": [
        {
          "internalType": "string",
          "name": "_name",
          "type": "string"
        },
        {
          "internalType": "string",
          "name": "_content",
          "type": "string"
        },
        {
          "internalType": "uint256",
          "name": "_price",
          "type": "uint256"
        },
        {
          "internalType": "uint256",
          "name": "_balance",
          "type": "uint256"
        },
        {
          "internalType": "string[]",
          "name": "_tags",
          "type": "string[]"
        }
      ],
      "name": "createCampaign",
      "outputs": [],
      "payable": false,
      "stateMutability": "nonpayable",
      "type": "function"
    },
    {
      "constant": true,
      "inputs": [
        {
          "internalType": "string[]",
          "name": "_tags",
          "type": "string[]"
        }
      ],
      "name": "getRandomCampaignByTags",
      "outputs": [
        {
          "internalType": "string",
          "name": "_campaignName",
          "type": "string"
        },
        {
          "internalType": "string",
          "name": "_campaignContent",
          "type": "string"
        }
      ],
      "payable": false,
      "stateMutability": "view",
      "type": "function"
    },
    {
      "constant": false,
      "inputs": [
        {
          "internalType": "uint256",
          "name": "_campaignId",
          "type": "uint256"
        }
      ],
      "name": "follow",
      "outputs": [],
      "payable": false,
      "stateMutability": "nonpayable",
      "type": "function"
    }
  ],
  "bytecode": "0x6080604052600160035534801561001557600080fd5b50610f15806100256000396000f3fe608060405234801561001057600080fd5b506004361061005e576000357c010000000000000000000000000000000000000000000000000000000090048063384b139314610063578063c16cf5c31461007f578063c88664c8146100b0575b600080fd5b61007d60048036036100789190810190610d36565b6100cc565b005b61009960048036036100949190810190610c25565b610186565b6040516100a7929190610de5565b60405180910390f35b6100ca60048036036100c59190810190610c6a565b6105f1565b005b600260003373ffffffffffffffffffffffffffffffffffffffff1673ffffffffffffffffffffffffffffffffffffffff1681526020019081526020016000208190806001815401808255809150509060018203906000526020600020016000909192909190915055503373ffffffffffffffffffffffffffffffffffffffff167faa59c6e35e058354730d06f7873a44ffce111ff4ba36a88f50c2beac67fbc7b58260405161017b9190610e1c565b60405180910390a250565b6060806060600a6040519080825280602002602001820160405280156101c657816020015b6101b3610949565b8152602001906001900390816101ab5790505b509050600080905060008090505b868690508110156105e757606060018888848181106101ef57fe5b905060200281018035600160200383360303811261020c57600080fd5b8083019250508135905060208201915067ffffffffffffffff81111561023157600080fd5b60018102360382131561024357600080fd5b604051610251929190610dcc565b90815260200160405180910390208054806020026020016040519081016040528092919081815260200182805480156102a957602002820191906000526020600020905b815481526020019060010190808311610295575b5050505050905060008090505b81518110156105d8576000808383815181106102ce57fe5b6020026020010151815260200190815260200160002060405180610100016040529081600082015481526020016001820160009054906101000a900473ffffffffffffffffffffffffffffffffffffffff1673ffffffffffffffffffffffffffffffffffffffff1673ffffffffffffffffffffffffffffffffffffffff168152602001600282018054600181600116156101000203166002900480601f0160208091040260200160405190810160405280929190818152602001828054600181600116156101000203166002900480156103e95780601f106103be576101008083540402835291602001916103e9565b820191906000526020600020905b8154815290600101906020018083116103cc57829003601f168201915b50505050508152602001600382018054600181600116156101000203166002900480601f01602080910402602001604051908101604052809291908181526020018280546001816001161561010002031660029004801561048b5780601f106104605761010080835404028352916020019161048b565b820191906000526020600020905b81548152906001019060200180831161046e57829003601f168201915b50505050508152602001600482015481526020016005820154815260200160068201805480602002602001604051908101604052809291908181526020016000905b82821015610589578382906000526020600020018054600181600116156101000203166002900480601f0160208091040260200160405190810160405280929190818152602001828054600181600116156101000203166002900480156105755780601f1061054a57610100808354040283529160200191610575565b820191906000526020600020905b81548152906001019060200180831161055857829003601f168201915b5050505050815260200190600101906104cd565b5050505081526020016007820160009054906101000a900460ff1615151515815250508585815181106105b857fe5b6020026020010181905250838060010194505080806001019150506102b6565b505080806001019150506101d4565b5050509250929050565b60608282905060405190808252806020026020018201604052801561062a57816020015b60608152602001906001900390816106155790505b5090506106356109a6565b60405180610100016040528060035481526020013373ffffffffffffffffffffffffffffffffffffffff1681526020018b8b8080601f016020809104026020016040519081016040528093929190818152602001838380828437600081840152601f19601f82011690508083019250505050505050815260200189898080601f016020809104026020016040519081016040528093929190818152602001838380828437600081840152601f19601f82011690508083019250505050505050815260200187815260200186815260200183815260200160011515815250905080600080836000015181526020019081526020016000206000820151816000015560208201518160010160006101000a81548173ffffffffffffffffffffffffffffffffffffffff021916908373ffffffffffffffffffffffffffffffffffffffff1602179055506040820151816002019080519060200190610798929190610a03565b5060608201518160030190805190602001906107b5929190610a03565b506080820151816004015560a0820151816005015560c08201518160060190805190602001906107e6929190610a83565b5060e08201518160070160006101000a81548160ff02191690831515021790555090505060008090505b848490508110156108d457600185858381811061082957fe5b905060200281018035600160200383360303811261084657600080fd5b8083019250508135905060208201915067ffffffffffffffff81111561086b57600080fd5b60018102360382131561087d57600080fd5b60405161088b929190610dcc565b9081526020016040518091039020826000015190806001815401808255809150509060018203906000526020600020016000909192909190915055508080600101915050610810565b50806020015173ffffffffffffffffffffffffffffffffffffffff167f633109eec20320eded000fc1e2634211aa7e92ba3f5b15faf6dcdafca05094e482600001516040516109239190610e1c565b60405180910390a260036000815480929190600101919050555050505050505050505050565b60405180610100016040528060008152602001600073ffffffffffffffffffffffffffffffffffffffff16815260200160608152602001606081526020016000815260200160008152602001606081526020016000151581525090565b60405180610100016040528060008152602001600073ffffffffffffffffffffffffffffffffffffffff16815260200160608152602001606081526020016000815260200160008152602001606081526020016000151581525090565b828054600181600116156101000203166002900490600052602060002090601f016020900481019282601f10610a4457805160ff1916838001178555610a72565b82800160010185558215610a72579182015b82811115610a71578251825591602001919060010190610a56565b5b509050610a7f9190610ae3565b5090565b828054828255906000526020600020908101928215610ad2579160200282015b82811115610ad1578251829080519060200190610ac1929190610a03565b5091602001919060010190610aa3565b5b509050610adf9190610b08565b5090565b610b0591905b80821115610b01576000816000905550600101610ae9565b5090565b90565b610b3191905b80821115610b2d5760008181610b249190610b34565b50600101610b0e565b5090565b90565b50805460018160011615610100020316600290046000825580601f10610b5a5750610b79565b601f016020900490600052602060002090810190610b789190610ae3565b5b50565b60008083601f840112610b8e57600080fd5b8235905067ffffffffffffffff811115610ba757600080fd5b602083019150836020820283011115610bbf57600080fd5b9250929050565b60008083601f840112610bd857600080fd5b8235905067ffffffffffffffff811115610bf157600080fd5b602083019150836001820283011115610c0957600080fd5b9250929050565b600081359050610c1f81610ebb565b92915050565b60008060208385031215610c3857600080fd5b600083013567ffffffffffffffff811115610c5257600080fd5b610c5e85828601610b7c565b92509250509250929050565b60008060008060008060008060a0898b031215610c8657600080fd5b600089013567ffffffffffffffff811115610ca057600080fd5b610cac8b828c01610bc6565b9850985050602089013567ffffffffffffffff811115610ccb57600080fd5b610cd78b828c01610bc6565b96509650506040610cea8b828c01610c10565b9450506060610cfb8b828c01610c10565b935050608089013567ffffffffffffffff811115610d1857600080fd5b610d248b828c01610b7c565b92509250509295985092959890939650565b600060208284031215610d4857600080fd5b6000610d5684828501610c10565b91505092915050565b6000610d6b8385610e53565b9350610d78838584610e68565b82840190509392505050565b6000610d8f82610e37565b610d998185610e42565b9350610da9818560208601610e77565b610db281610eaa565b840191505092915050565b610dc681610e5e565b82525050565b6000610dd9828486610d5f565b91508190509392505050565b60006040820190508181036000830152610dff8185610d84565b90508181036020830152610e138184610d84565b90509392505050565b6000602082019050610e316000830184610dbd565b92915050565b600081519050919050565b600082825260208201905092915050565b600081905092915050565b6000819050919050565b82818337600083830152505050565b60005b83811015610e95578082015181840152602081019050610e7a565b83811115610ea4576000848401525b50505050565b6000601f19601f8301169050919050565b610ec481610e5e565b8114610ecf57600080fd5b5056fea365627a7a72315820fe23044850affa6c816a2a4525ccb617746911f6052ecb19b886508456babf7d6c6578706572696d656e74616cf564736f6c634300050c0040",
  "source": "pragma solidity ^0.5.12;\npragma experimental ABIEncoderV2;\n\n//1. create campaign\n//2. user follow campaign\n//3. get campaign by tag\ncontract Ads {\n\n    struct Campaign {\n        uint id;\n        address author;\n        string name;\n        string content;\n        uint price;\n        uint balance;\n        string[] tags;\n        bool active;\n    }\n\n    event CampaignCreated(\n        uint _id,\n        address indexed _author\n    );\n\n    event CampaignFollowed(\n        uint _campaignId,\n        address indexed follower\n    );\n\n    mapping (uint => Campaign) private campaigns;\n    mapping (string => uint[]) private tags;\n    mapping (address => uint[]) private following;\n\n\n    uint nextCampaignId = 1;\n\n    function createCampaign(\n        string calldata _name,\n        string calldata _content,\n        uint _price,\n        uint _balance,\n        string[] calldata _tags\n    ) external\n    {\n        string[] memory _tagsMemory = new string[](_tags.length);\n\n        Campaign memory _campaign = Campaign(\n            nextCampaignId,\n            msg.sender,\n            _name,\n            _content,\n            _price,\n            _balance,\n            _tagsMemory,\n            true\n        );\n\n        campaigns[_campaign.id] = _campaign;\n\n        for(uint i = 0; i < _tags.length; i++){\n            tags[_tags[i]].push(_campaign.id);\n        }\n\n        emit CampaignCreated(\n            _campaign.id,\n            _campaign.author\n        );\n\n        nextCampaignId++;\n    }\n\n    function getRandomCampaignByTags(\n        string[] calldata _tags\n    ) external\n      view\n      returns(string memory _campaignName, string memory _campaignContent)\n    {\n        Campaign[] memory _campaignResult = new Campaign[](10);\n        uint _campaignCount = 0;\n\n        for(uint i = 0; i < _tags.length; i++){\n            \n            uint[] memory campaignIds = tags[_tags[i]];\n            \n            for(uint j = 0; j < campaignIds.length; j++){\n                _campaignResult[_campaignCount] = campaigns[campaignIds[j]];\n                _campaignCount++;\n            }\n        }\n\n        //TO-DO get random campaign\n    }\n\n    function follow(\n        uint _campaignId\n    ) external\n    {\n        following[msg.sender].push(_campaignId);\n\n        emit CampaignFollowed(\n            _campaignId,\n            msg.sender\n        );\n    }\n}",
  "sourcePath": "C:/Files/Repo/4cadiagithub/janus/packages/ads-smartcontract/contracts/Ads.sol",
  "compiler": {
    "name": "solc",
    "version": "0.5.12+commit.7709ece9.Emscripten.clang"
  },
  "schemaVersion": "3.0.6",
  "updatedAt": "2019-11-13T20:27:55.182Z",
  "devdoc": {
    "methods": {}
  },
  "userdoc": {
    "methods": {}
  }
}