{
  "contractName": "Indexer",
  "abi": [
    {
      "inputs": [],
      "payable": false,
      "stateMutability": "nonpayable",
      "type": "constructor"
    },
    {
      "anonymous": false,
      "inputs": [
        {
          "indexed": false,
          "internalType": "string[]",
          "name": "tags",
          "type": "string[]"
        }
      ],
      "name": "addWebSiteEvent",
      "type": "event"
    },
    {
      "anonymous": false,
      "inputs": [
        {
          "indexed": true,
          "internalType": "string",
          "name": "storageHash",
          "type": "string"
        },
        {
          "indexed": false,
          "internalType": "string[]",
          "name": "tags",
          "type": "string[]"
        },
        {
          "indexed": false,
          "internalType": "string",
          "name": "tile",
          "type": "string"
        },
        {
          "indexed": false,
          "internalType": "string",
          "name": "description",
          "type": "string"
        }
      ],
      "name": "WebsiteAppend",
      "type": "event"
    },
    {
      "anonymous": false,
      "inputs": [
        {
          "indexed": true,
          "internalType": "string",
          "name": "storageHash",
          "type": "string"
        }
      ],
      "name": "WebsiteBurn",
      "type": "event"
    },
    {
      "constant": false,
      "inputs": [],
      "name": "kill",
      "outputs": [],
      "payable": false,
      "stateMutability": "nonpayable",
      "type": "function"
    },
    {
      "constant": true,
      "inputs": [
        {
          "internalType": "string",
          "name": "storageHash",
          "type": "string"
        }
      ],
      "name": "websiteExists",
      "outputs": [
        {
          "internalType": "bool",
          "name": "",
          "type": "bool"
        }
      ],
      "payable": false,
      "stateMutability": "view",
      "type": "function"
    },
    {
      "constant": false,
      "inputs": [
        {
          "internalType": "string",
          "name": "storageHash",
          "type": "string"
        },
        {
          "internalType": "string[]",
          "name": "tags",
          "type": "string[]"
        },
        {
          "internalType": "string",
          "name": "title",
          "type": "string"
        },
        {
          "internalType": "string",
          "name": "description",
          "type": "string"
        }
      ],
      "name": "addWebSite",
      "outputs": [],
      "payable": false,
      "stateMutability": "nonpayable",
      "type": "function"
    },
    {
      "constant": false,
      "inputs": [
        {
          "internalType": "string",
          "name": "storageHash",
          "type": "string"
        },
        {
          "internalType": "string[]",
          "name": "tags",
          "type": "string[]"
        },
        {
          "internalType": "string",
          "name": "title",
          "type": "string"
        },
        {
          "internalType": "string",
          "name": "description",
          "type": "string"
        }
      ],
      "name": "appendWebsite",
      "outputs": [],
      "payable": false,
      "stateMutability": "nonpayable",
      "type": "function"
    },
    {
      "constant": false,
      "inputs": [
        {
          "internalType": "string",
          "name": "storageHash",
          "type": "string"
        }
      ],
      "name": "burnWebsite",
      "outputs": [],
      "payable": false,
      "stateMutability": "nonpayable",
      "type": "function"
    },
    {
      "constant": true,
      "inputs": [
        {
          "internalType": "string[]",
          "name": "tags",
          "type": "string[]"
        },
        {
          "internalType": "uint256",
          "name": "pageNumber",
          "type": "uint256"
        },
        {
          "internalType": "uint256",
          "name": "pageSize",
          "type": "uint256"
        }
      ],
      "name": "getWebSite",
      "outputs": [
        {
          "internalType": "string[]",
          "name": "",
          "type": "string[]"
        },
        {
          "internalType": "uint256",
          "name": "",
          "type": "uint256"
        }
      ],
      "payable": false,
      "stateMutability": "view",
      "type": "function"
    },
    {
      "constant": true,
      "inputs": [
        {
          "internalType": "string",
          "name": "storageHash",
          "type": "string"
        }
      ],
      "name": "getWebsiteByHash",
      "outputs": [
        {
          "components": [
            {
              "internalType": "string",
              "name": "storageHash",
              "type": "string"
            },
            {
              "internalType": "string",
              "name": "title",
              "type": "string"
            },
            {
              "internalType": "string",
              "name": "description",
              "type": "string"
            },
            {
              "internalType": "string[]",
              "name": "tags",
              "type": "string[]"
            },
            {
              "internalType": "address",
              "name": "owner",
              "type": "address"
            },
            {
              "internalType": "bool",
              "name": "visible",
              "type": "bool"
            }
          ],
          "internalType": "struct Indexer.Website",
          "name": "",
          "type": "tuple"
        }
      ],
      "payable": false,
      "stateMutability": "view",
      "type": "function"
    },
    {
      "constant": true,
      "inputs": [],
      "name": "getAllWebsitesByOwner",
      "outputs": [
        {
          "components": [
            {
              "internalType": "string",
              "name": "storageHash",
              "type": "string"
            },
            {
              "internalType": "string",
              "name": "title",
              "type": "string"
            },
            {
              "internalType": "string",
              "name": "description",
              "type": "string"
            },
            {
              "internalType": "string[]",
              "name": "tags",
              "type": "string[]"
            },
            {
              "internalType": "address",
              "name": "owner",
              "type": "address"
            },
            {
              "internalType": "bool",
              "name": "visible",
              "type": "bool"
            }
          ],
          "internalType": "struct Indexer.Website[]",
          "name": "",
          "type": "tuple[]"
        }
      ],
      "payable": false,
      "stateMutability": "view",
      "type": "function"
    }
  ],
  "bytecode": "0x608060405234801561001057600080fd5b50336000806101000a81548173ffffffffffffffffffffffffffffffffffffffff021916908373ffffffffffffffffffffffffffffffffffffffff160217905550612be3806100606000396000f3fe608060405234801561001057600080fd5b50600436106100885760003560e01c8063a3ac19eb1161005b578063a3ac19eb14610102578063cba6e9291461011e578063dc007f281461014e578063f28bb2111461017e57610088565b806341c0e1b51461008d57806350448bd1146100975780636b2a4abc146100b55780639d36fd3e146100d1575b600080fd5b61009561019a565b005b61009f610263565b6040516100ac919061276a565b60405180910390f35b6100cf60048036036100ca9190810190611efc565b6106eb565b005b6100eb60048036036100e69190810190611dea565b6109d8565b6040516100f992919061273a565b60405180910390f35b61011c60048036036101179190810190611e7a565b610f3e565b005b61013860048036036101339190810190611e7a565b611103565b60405161014591906128f4565b60405180910390f35b61016860048036036101639190810190611e7a565b6114e6565b604051610175919061278c565b60405180910390f35b61019860048036036101939190810190611efc565b6115ca565b005b6000809054906101000a900473ffffffffffffffffffffffffffffffffffffffff1673ffffffffffffffffffffffffffffffffffffffff163373ffffffffffffffffffffffffffffffffffffffff1614610229576040517f08c379a000000000000000000000000000000000000000000000000000000000815260040161022090612894565b60405180910390fd5b6000809054906101000a900473ffffffffffffffffffffffffffffffffffffffff1673ffffffffffffffffffffffffffffffffffffffff16ff5b606080600460003373ffffffffffffffffffffffffffffffffffffffff1673ffffffffffffffffffffffffffffffffffffffff1681526020019081526020016000208054806020026020016040519081016040528092919081815260200182805480156102ef57602002820191906000526020600020905b8154815260200190600101908083116102db575b505050505090506060815160405190808252806020026020018201604052801561033357816020015b61032061195b565b8152602001906001900390816103185790505b50905060008090505b82518110156106e257600183828151811061035357fe5b60200260200101518154811061036557fe5b90600052602060002090600502016040518060c0016040529081600082018054600181600116156101000203166002900480601f0160208091040260200160405190810160405280929190818152602001828054600181600116156101000203166002900480156104175780601f106103ec57610100808354040283529160200191610417565b820191906000526020600020905b8154815290600101906020018083116103fa57829003601f168201915b50505050508152602001600182018054600181600116156101000203166002900480601f0160208091040260200160405190810160405280929190818152602001828054600181600116156101000203166002900480156104b95780601f1061048e576101008083540402835291602001916104b9565b820191906000526020600020905b81548152906001019060200180831161049c57829003601f168201915b50505050508152602001600282018054600181600116156101000203166002900480601f01602080910402602001604051908101604052809291908181526020018280546001816001161561010002031660029004801561055b5780601f106105305761010080835404028352916020019161055b565b820191906000526020600020905b81548152906001019060200180831161053e57829003601f168201915b5050505050815260200160038201805480602002602001604051908101604052809291908181526020016000905b82821015610645578382906000526020600020018054600181600116156101000203166002900480601f0160208091040260200160405190810160405280929190818152602001828054600181600116156101000203166002900480156106315780601f1061060657610100808354040283529160200191610631565b820191906000526020600020905b81548152906001019060200180831161061457829003601f168201915b505050505081526020019060010190610589565b5050505081526020016004820160009054906101000a900473ffffffffffffffffffffffffffffffffffffffff1673ffffffffffffffffffffffffffffffffffffffff1673ffffffffffffffffffffffffffffffffffffffff1681526020016004820160149054906101000a900460ff1615151515815250508282815181106106ca57fe5b6020026020010181905250808060010191505061033c565b50809250505090565b6106f4846114e6565b15610734576040517f08c379a000000000000000000000000000000000000000000000000000000000815260040161072b906128b4565b60405180910390fd5b61073c6119a9565b6040518060c001604052808681526020018481526020018381526020018581526020013373ffffffffffffffffffffffffffffffffffffffff1681526020016001151581525090506000600180839080600181540180825580915050906001820390600052602060002090600502016000909192909190915060008201518160000190805190602001906107d19291906119f7565b5060208201518160010190805190602001906107ee9291906119f7565b50604082015181600201908051906020019061080b9291906119f7565b506060820151816003019080519060200190610828929190611a77565b5060808201518160040160006101000a81548173ffffffffffffffffffffffffffffffffffffffff021916908373ffffffffffffffffffffffffffffffffffffffff16021790555060a08201518160040160146101000a81548160ff0219169083151502179055505050039050806002876040516108a6919061269e565b90815260200160405180910390208190555060008090505b855181101561092f5760038682815181106108d557fe5b60200260200101516040516108ea9190612687565b908152602001604051809103902082908060018154018082558091505090600182039060005260206000200160009091929091909150555080806001019150506108be565b50600460003373ffffffffffffffffffffffffffffffffffffffff1673ffffffffffffffffffffffffffffffffffffffff1681526020019081526020016000208190806001815401808255809150509060018203906000526020600020016000909192909190915055507f323da4cc5c3ecf4becdc48a202344c3082af74d4a3c0764c3814e60060d1de75856040516109c891906126cc565b60405180910390a1505050505050565b6060600080600090506000809050606085604051908082528060200260200182016040528015610a1c57816020015b6060815260200190600190039081610a075790505b50905060008090505b8851811015610f2c57600060038a8381518110610a3e57fe5b6020026020010151604051610a539190612687565b9081526020016040518091039020905060008090505b8180549050811015610f0f57600060018a8881610a8257fe5b040190508a811115610a945750610f0f565b610a9c6119a9565b6001848481548110610aaa57fe5b906000526020600020015481548110610abf57fe5b90600052602060002090600502016040518060c0016040529081600082018054600181600116156101000203166002900480601f016020809104026020016040519081016040528092919081815260200182805460018160011615610100020316600290048015610b715780601f10610b4657610100808354040283529160200191610b71565b820191906000526020600020905b815481529060010190602001808311610b5457829003601f168201915b50505050508152602001600182018054600181600116156101000203166002900480601f016020809104026020016040519081016040528092919081815260200182805460018160011615610100020316600290048015610c135780601f10610be857610100808354040283529160200191610c13565b820191906000526020600020905b815481529060010190602001808311610bf657829003601f168201915b50505050508152602001600282018054600181600116156101000203166002900480601f016020809104026020016040519081016040528092919081815260200182805460018160011615610100020316600290048015610cb55780601f10610c8a57610100808354040283529160200191610cb5565b820191906000526020600020905b815481529060010190602001808311610c9857829003601f168201915b5050505050815260200160038201805480602002602001604051908101604052809291908181526020016000905b82821015610d9f578382906000526020600020018054600181600116156101000203166002900480601f016020809104026020016040519081016040528092919081815260200182805460018160011615610100020316600290048015610d8b5780601f10610d6057610100808354040283529160200191610d8b565b820191906000526020600020905b815481529060010190602001808311610d6e57829003601f168201915b505050505081526020019060010190610ce3565b5050505081526020016004820160009054906101000a900473ffffffffffffffffffffffffffffffffffffffff1673ffffffffffffffffffffffffffffffffffffffff1673ffffffffffffffffffffffffffffffffffffffff1681526020016004820160149054906101000a900460ff16151515158152505090508060a0015115610ef15787806001019850508b821415610ef05773__StringUtils___________________________6390ac0f808260000151836020015184604001516040518463ffffffff1660e01b8152600401610e7b939291906127de565b60006040518083038186803b158015610e9357600080fd5b505af4158015610ea7573d6000803e3d6000fd5b505050506040513d6000823e3d601f19601f82011682018060405250610ed09190810190611ebb565b868881518110610edc57fe5b602002602001018190525086806001019750505b5b8a871415610f00575050610f0f565b50508080600101915050610a69565b5087841415610f1e5750610f2c565b508080600101915050610a25565b50808294509450505050935093915050565b80610f48816114e6565b610f87576040517f08c379a0000000000000000000000000000000000000000000000000000000008152600401610f7e90612874565b60405180910390fd5b816000600282604051610f9a919061269e565b908152602001604051809103902054905060018181548110610fb857fe5b906000526020600020906005020160040160009054906101000a900473ffffffffffffffffffffffffffffffffffffffff1673ffffffffffffffffffffffffffffffffffffffff163373ffffffffffffffffffffffffffffffffffffffff1614611057576040517f08c379a000000000000000000000000000000000000000000000000000000000815260040161104e906128d4565b60405180910390fd5b6000600285604051611069919061269e565b908152602001604051809103902054905060006001828154811061108957fe5b9060005260206000209060050201905060008160040160146101000a81548160ff021916908315150217905550806000016040516110c791906126b5565b60405180910390207fa74043ca2650635fe774db7eb29abaf940bc0ef6cd11b7b2c577c32b58d826ac60405160405180910390a2505050505050565b61110b6119a9565b81611115816114e6565b611154576040517f08c379a000000000000000000000000000000000000000000000000000000000815260040161114b90612874565b60405180910390fd5b6000600284604051611166919061269e565b90815260200160405180910390205490506001818154811061118457fe5b90600052602060002090600502016040518060c0016040529081600082018054600181600116156101000203166002900480601f0160208091040260200160405190810160405280929190818152602001828054600181600116156101000203166002900480156112365780601f1061120b57610100808354040283529160200191611236565b820191906000526020600020905b81548152906001019060200180831161121957829003601f168201915b50505050508152602001600182018054600181600116156101000203166002900480601f0160208091040260200160405190810160405280929190818152602001828054600181600116156101000203166002900480156112d85780601f106112ad576101008083540402835291602001916112d8565b820191906000526020600020905b8154815290600101906020018083116112bb57829003601f168201915b50505050508152602001600282018054600181600116156101000203166002900480601f01602080910402602001604051908101604052809291908181526020018280546001816001161561010002031660029004801561137a5780601f1061134f5761010080835404028352916020019161137a565b820191906000526020600020905b81548152906001019060200180831161135d57829003601f168201915b5050505050815260200160038201805480602002602001604051908101604052809291908181526020016000905b82821015611464578382906000526020600020018054600181600116156101000203166002900480601f0160208091040260200160405190810160405280929190818152602001828054600181600116156101000203166002900480156114505780601f1061142557610100808354040283529160200191611450565b820191906000526020600020905b81548152906001019060200180831161143357829003601f168201915b5050505050815260200190600101906113a8565b5050505081526020016004820160009054906101000a900473ffffffffffffffffffffffffffffffffffffffff1673ffffffffffffffffffffffffffffffffffffffff1673ffffffffffffffffffffffffffffffffffffffff1681526020016004820160149054906101000a900460ff16151515158152505092505050919050565b60008060018054905014156114fe57600090506115c5565b73__StringUtils___________________________6346bdca9a600160028560405161152a919061269e565b9081526020016040518091039020548154811061154357fe5b9060005260206000209060050201600001846040518363ffffffff1660e01b815260040161157292919061283d565b60206040518083038186803b15801561158a57600080fd5b505af415801561159e573d6000803e3d6000fd5b505050506040513d601f19601f820116820180604052506115c29190810190611e51565b90505b919050565b836115d4816114e6565b611613576040517f08c379a000000000000000000000000000000000000000000000000000000000815260040161160a90612874565b60405180910390fd5b846000600282604051611626919061269e565b90815260200160405180910390205490506001818154811061164457fe5b906000526020600020906005020160040160009054906101000a900473ffffffffffffffffffffffffffffffffffffffff1673ffffffffffffffffffffffffffffffffffffffff163373ffffffffffffffffffffffffffffffffffffffff16146116e3576040517f08c379a00000000000000000000000000000000000000000000000000000000081526004016116da906128d4565b60405180910390fd5b60006002886040516116f5919061269e565b908152602001604051809103902054905073__StringUtils___________________________6346bdca9a876001848154811061172e57fe5b90600052602060002090600502016001016040518363ffffffff1660e01b815260040161175c9291906127a7565b60206040518083038186803b15801561177457600080fd5b505af4158015611788573d6000803e3d6000fd5b505050506040513d601f19601f820116820180604052506117ac9190810190611e51565b6117e45785600182815481106117be57fe5b906000526020600020906005020160010190805190602001906117e2929190611ad7565b505b73__StringUtils___________________________6346bdca9a866001848154811061180c57fe5b90600052602060002090600502016002016040518363ffffffff1660e01b815260040161183a9291906127a7565b60206040518083038186803b15801561185257600080fd5b505af4158015611866573d6000803e3d6000fd5b505050506040513d601f19601f8201168201806040525061188a9190810190611e51565b6118c257846001828154811061189c57fe5b906000526020600020906005020160020190805190602001906118c0929190611ad7565b505b6000875111156119005786600182815481106118da57fe5b906000526020600020906005020160030190805190602001906118fe929190611b57565b505b8760405161190e919061269e565b60405180910390207fbfb0beead79d186604a29b0da3ff67b478bda2001875f757f5faa3ec8253d7d5888888604051611949939291906126ee565b60405180910390a25050505050505050565b6040518060c0016040528060608152602001606081526020016060815260200160608152602001600073ffffffffffffffffffffffffffffffffffffffff1681526020016000151581525090565b6040518060c0016040528060608152602001606081526020016060815260200160608152602001600073ffffffffffffffffffffffffffffffffffffffff1681526020016000151581525090565b828054600181600116156101000203166002900490600052602060002090601f016020900481019282601f10611a3857805160ff1916838001178555611a66565b82800160010185558215611a66579182015b82811115611a65578251825591602001919060010190611a4a565b5b509050611a739190611bb7565b5090565b828054828255906000526020600020908101928215611ac6579160200282015b82811115611ac5578251829080519060200190611ab59291906119f7565b5091602001919060010190611a97565b5b509050611ad39190611bdc565b5090565b828054600181600116156101000203166002900490600052602060002090601f016020900481019282601f10611b1857805160ff1916838001178555611b46565b82800160010185558215611b46579182015b82811115611b45578251825591602001919060010190611b2a565b5b509050611b539190611bb7565b5090565b828054828255906000526020600020908101928215611ba6579160200282015b82811115611ba5578251829080519060200190611b959291906119f7565b5091602001919060010190611b77565b5b509050611bb39190611bdc565b5090565b611bd991905b80821115611bd5576000816000905550600101611bbd565b5090565b90565b611c0591905b80821115611c015760008181611bf89190611c08565b50600101611be2565b5090565b90565b50805460018160011615610100020316600290046000825580601f10611c2e5750611c4d565b601f016020900490600052602060002090810190611c4c9190611bb7565b5b50565b600082601f830112611c6157600080fd5b8135611c74611c6f82612943565b612916565b9150818183526020840193506020810190508360005b83811015611cba5781358601611ca08882611cd9565b845260208401935060208301925050600181019050611c8a565b5050505092915050565b600081519050611cd381612b72565b92915050565b600082601f830112611cea57600080fd5b8135611cfd611cf88261296b565b612916565b91508082526020830160208301858383011115611d1957600080fd5b611d24838284612b1f565b50505092915050565b600082601f830112611d3e57600080fd5b8135611d51611d4c82612997565b612916565b91508082526020830160208301858383011115611d6d57600080fd5b611d78838284612b1f565b50505092915050565b600082601f830112611d9257600080fd5b8151611da5611da082612997565b612916565b91508082526020830160208301858383011115611dc157600080fd5b611dcc838284612b2e565b50505092915050565b600081359050611de481612b89565b92915050565b600080600060608486031215611dff57600080fd5b600084013567ffffffffffffffff811115611e1957600080fd5b611e2586828701611c50565b9350506020611e3686828701611dd5565b9250506040611e4786828701611dd5565b9150509250925092565b600060208284031215611e6357600080fd5b6000611e7184828501611cc4565b91505092915050565b600060208284031215611e8c57600080fd5b600082013567ffffffffffffffff811115611ea657600080fd5b611eb284828501611d2d565b91505092915050565b600060208284031215611ecd57600080fd5b600082015167ffffffffffffffff811115611ee757600080fd5b611ef384828501611d81565b91505092915050565b60008060008060808587031215611f1257600080fd5b600085013567ffffffffffffffff811115611f2c57600080fd5b611f3887828801611d2d565b945050602085013567ffffffffffffffff811115611f5557600080fd5b611f6187828801611c50565b935050604085013567ffffffffffffffff811115611f7e57600080fd5b611f8a87828801611d2d565b925050606085013567ffffffffffffffff811115611fa757600080fd5b611fb387828801611d2d565b91505092959194509250565b6000611fcb8383612216565b905092915050565b6000611fdf83836125da565b905092915050565b611ff081612ad7565b82525050565b600061200182612a13565b61200b8185612a77565b93508360208202850161201d856129d3565b8060005b85811015612059578484038952815161203a8582611fbf565b945061204583612a4c565b925060208a01995050600181019050612021565b50829750879550505050505092915050565b600061207682612a08565b6120808185612a66565b935083602082028501612092856129c3565b8060005b858110156120ce57848403895281516120af8582611fbf565b94506120ba83612a3f565b925060208a01995050600181019050612096565b50829750879550505050505092915050565b60006120eb82612a1e565b6120f58185612a88565b935083602082028501612107856129e3565b8060005b8581101561214357848403895281516121248582611fd3565b945061212f83612a59565b925060208a0199505060018101905061210b565b50829750879550505050505092915050565b61215e81612ae9565b82525050565b61216d81612ae9565b82525050565b600061217e82612a34565b6121888185612aaa565b9350612198818560208601612b2e565b6121a181612b61565b840191505092915050565b60006121b782612a34565b6121c18185612abb565b93506121d1818560208601612b2e565b6121da81612b61565b840191505092915050565b60006121f082612a34565b6121fa8185612acc565b935061220a818560208601612b2e565b80840191505092915050565b600061222182612a29565b61222b8185612a99565b935061223b818560208601612b2e565b61224481612b61565b840191505092915050565b600061225a82612a29565b6122648185612abb565b9350612274818560208601612b2e565b61227d81612b61565b840191505092915050565b600061229382612a29565b61229d8185612acc565b93506122ad818560208601612b2e565b80840191505092915050565b6000815460018116600081146122d657600181146122fc57612340565b607f60028304166122e78187612abb565b955060ff198316865260208601935050612340565b6002820461230a8187612abb565b9550612315856129f3565b60005b8281101561233757815481890152600182019150602081019050612318565b80880195505050505b505092915050565b600081546001811660008114612365576001811461238a576123ce565b607f60028304166123768187612acc565b955060ff19831686528086019350506123ce565b600282046123988187612acc565b95506123a3856129f3565b60005b828110156123c5578154818901526001820191506020810190506123a6565b82880195505050505b505092915050565b60006123e3601683612aaa565b91507f5765627369746520646f6573206e6f74206578697374000000000000000000006000830152602082019050919050565b6000612423600183612abb565b91507f3b000000000000000000000000000000000000000000000000000000000000006000830152602082019050919050565b6000612463602e83612aaa565b91507f4f6e6c792074686520636f6e7472616374206f776e65722063616e206b696c6c60008301527f207468697320636f6e74726163740000000000000000000000000000000000006020830152604082019050919050565b60006124c9600e83612aaa565b91507f57656273697465206578697374730000000000000000000000000000000000006000830152602082019050919050565b6000612509600e83612aaa565b91507f4e6f7420617574686f72697a65640000000000000000000000000000000000006000830152602082019050919050565b600060c08301600083015184820360008601526125598282612216565b915050602083015184820360208601526125738282612216565b9150506040830151848203604086015261258d8282612216565b915050606083015184820360608601526125a7828261206b565b91505060808301516125bc6080860182611fe7565b5060a08301516125cf60a0860182612155565b508091505092915050565b600060c08301600083015184820360008601526125f78282612216565b915050602083015184820360208601526126118282612216565b9150506040830151848203604086015261262b8282612216565b91505060608301518482036060860152612645828261206b565b915050608083015161265a6080860182611fe7565b5060a083015161266d60a0860182612155565b508091505092915050565b61268181612b15565b82525050565b60006126938284612288565b915081905092915050565b60006126aa82846121e5565b915081905092915050565b60006126c18284612348565b915081905092915050565b600060208201905081810360008301526126e68184611ff6565b905092915050565b600060608201905081810360008301526127088186611ff6565b9050818103602083015261271c8185612173565b905081810360408301526127308184612173565b9050949350505050565b600060408201905081810360008301526127548185611ff6565b90506127636020830184612678565b9392505050565b6000602082019050818103600083015261278481846120e0565b905092915050565b60006020820190506127a16000830184612164565b92915050565b600060408201905081810360008301526127c181856121ac565b905081810360208301526127d581846122b9565b90509392505050565b600060808201905081810360008301526127f8818661224f565b9050818103602083015261280c818561224f565b90508181036040830152612820818461224f565b9050818103606083015261283381612416565b9050949350505050565b6000604082019050818103600083015261285781856122b9565b9050818103602083015261286b81846121ac565b90509392505050565b6000602082019050818103600083015261288d816123d6565b9050919050565b600060208201905081810360008301526128ad81612456565b9050919050565b600060208201905081810360008301526128cd816124bc565b9050919050565b600060208201905081810360008301526128ed816124fc565b9050919050565b6000602082019050818103600083015261290e818461253c565b905092915050565b6000604051905081810181811067ffffffffffffffff8211171561293957600080fd5b8060405250919050565b600067ffffffffffffffff82111561295a57600080fd5b602082029050602081019050919050565b600067ffffffffffffffff82111561298257600080fd5b601f19601f8301169050602081019050919050565b600067ffffffffffffffff8211156129ae57600080fd5b601f19601f8301169050602081019050919050565b6000819050602082019050919050565b6000819050602082019050919050565b6000819050602082019050919050565b60008190508160005260206000209050919050565b600081519050919050565b600081519050919050565b600081519050919050565b600081519050919050565b600081519050919050565b6000602082019050919050565b6000602082019050919050565b6000602082019050919050565b600082825260208201905092915050565b600082825260208201905092915050565b600082825260208201905092915050565b600082825260208201905092915050565b600082825260208201905092915050565b600082825260208201905092915050565b600081905092915050565b6000612ae282612af5565b9050919050565b60008115159050919050565b600073ffffffffffffffffffffffffffffffffffffffff82169050919050565b6000819050919050565b82818337600083830152505050565b60005b83811015612b4c578082015181840152602081019050612b31565b83811115612b5b576000848401525b50505050565b6000601f19601f8301169050919050565b612b7b81612ae9565b8114612b8657600080fd5b50565b612b9281612b15565b8114612b9d57600080fd5b5056fea365627a7a7231582048d7b0cbd018cb98bf4178649208242ac5f058664500ee957d1ccba2130c90446c6578706572696d656e74616cf564736f6c634300050b0040",
  "source": "pragma solidity >= 0.5.7 < 0.6.0;\npragma experimental ABIEncoderV2;\n\nimport './StringUtils.sol';\n\ncontract Indexer {\n    struct Website{\n        string storageHash;\n        string title;\n        string description;\n        string[] tags;\n        address owner;\n        bool visible;\n    }\n\n    address payable private contractOwner;\n    Website[] private websites;\n    mapping(string => uint) hashToIndex;\n    mapping(string => uint[]) tagToIndexes;\n    mapping(address => uint[]) addrToIndexes;\n\n    event addWebSiteEvent(string[] tags);\n    event WebsiteAppend(string indexed storageHash, string[] tags, string tile, string description);\n    event WebsiteBurn(string indexed storageHash);\n\n    modifier onlyExistingWebsite(string memory storageHash) {\n        require(websiteExists(storageHash), 'Website does not exist');\n        _;\n    }\n\n    modifier onlyWebsiteOwner(string memory storageHash) {\n        uint index = hashToIndex[storageHash];\n        require(msg.sender == websites[index].owner, 'Not authorized');\n        _;\n    }\n\n    constructor() public {\n        contractOwner = msg.sender;\n    }\n\n    function kill() external {\n        require(msg.sender == contractOwner, 'Only the contract owner can kill this contract');\n        selfdestruct(contractOwner);\n    }\n\n    function websiteExists(string memory storageHash) public view returns (bool) {\n        if(websites.length == 0){\n            return false;\n        }\n\n        return StringUtils.equal(websites[hashToIndex[storageHash]].storageHash, storageHash);\n    }\n\n    function addWebSite(\n        string memory storageHash,\n        string[] memory tags,\n        string memory title,\n        string memory description\n    )\n        public\n    {\n        require(!websiteExists(storageHash), 'Website exists');\n\n        Website memory newWebsite = Website({\n            storageHash: storageHash,\n            title: title,\n            description: description,\n            tags: tags,\n            owner: msg.sender,\n            visible: true\n        });\n\n        uint index = websites.push(newWebsite) - 1;\n\n        hashToIndex[storageHash] = index;\n\n        for(uint i = 0; i < tags.length; i++){\n            tagToIndexes[tags[i]].push(index);\n        }\n\n        addrToIndexes[msg.sender].push(index);\n\n        emit addWebSiteEvent(tags);\n    }\n\n    function appendWebsite(\n        string memory storageHash,\n        string[] memory tags,\n        string memory title,\n        string memory description\n    )\n        public\n        onlyExistingWebsite(storageHash)\n        onlyWebsiteOwner(storageHash)\n    {\n        uint index = hashToIndex[storageHash];\n\n        if(!StringUtils.equal(title, websites[index].title))\n            websites[index].title = title;\n\n        if(!StringUtils.equal(description, websites[index].description))\n            websites[index].description = description;\n\n        if(tags.length > 0)\n            websites[index].tags = tags;\n\n        emit WebsiteAppend(storageHash, tags, title, description);\n    }\n\n    function burnWebsite(string memory storageHash)\n        public\n        onlyExistingWebsite(storageHash)\n        onlyWebsiteOwner(storageHash)\n    {\n        uint index = hashToIndex[storageHash];\n\n        Website storage website = websites[index];\n        website.visible = false;\n\n        emit WebsiteBurn(website.storageHash);\n    }\n\n    function getWebSite(\n        string[] memory tags,\n        uint pageNumber,\n        uint pageSize\n    )\n        public view\n        returns (string[] memory, uint)\n    {\n        uint foundItemsCount = 0;\n        uint returnedItemsCount = 0;\n        string[] memory returnedItems = new string[](pageSize);\n\n        for (uint tagsCount = 0; tagsCount < tags.length; tagsCount++) {\n            uint[] storage websitesOfTag = tagToIndexes[tags[tagsCount]];\n            for (uint siteIndexCount = 0; siteIndexCount < websitesOfTag.length; siteIndexCount++) {\n                uint currentPage = (foundItemsCount / pageSize) + 1;\n                if (currentPage > pageNumber) {\n                    break;\n                }\n\n                Website memory website = websites[websitesOfTag[siteIndexCount]];\n\n                if (website.visible) {\n                    foundItemsCount++;\n\n                    if (currentPage == pageNumber) {\n                        returnedItems[returnedItemsCount] = StringUtils.concat3(\n                            website.storageHash,\n                            website.title,\n                            website.description,\n                            ';'\n                        );\n                        returnedItemsCount++;\n                    }\n                }\n\n                if (returnedItemsCount == pageSize) {\n                    break;\n                }\n            }\n\n            if (returnedItemsCount == pageSize) {\n                break;\n            }\n        }\n\n        return (returnedItems, returnedItemsCount);\n    }\n\n    function getWebsiteByHash(string memory storageHash)\n        public view\n        onlyExistingWebsite(storageHash)\n        returns (Website memory)\n    {\n        uint index = hashToIndex[storageHash];\n        return websites[index];\n    }\n\n    function getAllWebsitesByOwner()\n        public view\n        returns (Website[] memory)\n    {\n        uint[] memory indexes = addrToIndexes[msg.sender];\n\n        Website[] memory results = new Website[](indexes.length);\n\n        for(uint i = 0; i < indexes.length; i++){\n            results[i] = websites[indexes[i]];\n        }\n\n        return results;\n    }\n}",
  "sourcePath": "/home/henrique/labs/janus-platform/packages/indexer-smartcontract/contracts/Indexer.sol",
  "compiler": {
    "name": "solc",
    "version": "0.5.11+commit.c082d0b4.Emscripten.clang"
  },
  "schemaVersion": "3.0.16",
  "updatedAt": "2019-09-19T20:20:55.857Z",
  "devdoc": {
    "methods": {}
  },
  "userdoc": {
    "methods": {}
  }
}