{
  "contractName": "StringUtils",
  "abi": [
    {
      "constant": true,
      "inputs": [
        {
          "internalType": "string",
          "name": "_a",
          "type": "string"
        },
        {
          "internalType": "string",
          "name": "_b",
          "type": "string"
        }
      ],
      "name": "compare",
      "outputs": [
        {
          "internalType": "int256",
          "name": "",
          "type": "int256"
        }
      ],
      "payable": false,
      "stateMutability": "pure",
      "type": "function"
    },
    {
      "constant": true,
      "inputs": [
        {
          "internalType": "string",
          "name": "_a",
          "type": "string"
        },
        {
          "internalType": "string",
          "name": "_b",
          "type": "string"
        }
      ],
      "name": "equal",
      "outputs": [
        {
          "internalType": "bool",
          "name": "",
          "type": "bool"
        }
      ],
      "payable": false,
      "stateMutability": "pure",
      "type": "function"
    },
    {
      "constant": true,
      "inputs": [
        {
          "internalType": "string",
          "name": "_haystack",
          "type": "string"
        },
        {
          "internalType": "string",
          "name": "_needle",
          "type": "string"
        }
      ],
      "name": "indexOf",
      "outputs": [
        {
          "internalType": "int256",
          "name": "",
          "type": "int256"
        }
      ],
      "payable": false,
      "stateMutability": "pure",
      "type": "function"
    },
    {
      "constant": true,
      "inputs": [
        {
          "internalType": "string",
          "name": "_a",
          "type": "string"
        },
        {
          "internalType": "string",
          "name": "_b",
          "type": "string"
        },
        {
          "internalType": "string",
          "name": "_c",
          "type": "string"
        },
        {
          "internalType": "string",
          "name": "_sep",
          "type": "string"
        }
      ],
      "name": "concat3",
      "outputs": [
        {
          "internalType": "string",
          "name": "",
          "type": "string"
        }
      ],
      "payable": false,
      "stateMutability": "pure",
      "type": "function"
    }
  ],
  "bytecode": "0x610e42610026600b82828239805160001a60731461001957fe5b30600052607381538281f3fe73000000000000000000000000000000000000000030146080604052600436106100565760003560e01c80633a96fdd71461005b57806346bdca9a146101c15780638a0807b71461032b57806390ac0f8014610491575b600080fd5b6101ab6004803603604081101561007157600080fd5b810190808035906020019064010000000081111561008e57600080fd5b8201836020820111156100a057600080fd5b803590602001918460018302840111640100000000831117156100c257600080fd5b91908080601f016020809104026020016040519081016040528093929190818152602001838380828437600081840152601f19601f8201169050808301925050505050505091929192908035906020019064010000000081111561012557600080fd5b82018360208201111561013757600080fd5b8035906020019184600183028401116401000000008311171561015957600080fd5b91908080601f016020809104026020016040519081016040528093929190818152602001838380828437600081840152601f19601f82011690508083019250505050505050919291929050505061078a565b6040518082815260200191505060405180910390f35b610311600480360360408110156101d757600080fd5b81019080803590602001906401000000008111156101f457600080fd5b82018360208201111561020657600080fd5b8035906020019184600183028401116401000000008311171561022857600080fd5b91908080601f016020809104026020016040519081016040528093929190818152602001838380828437600081840152601f19601f8201169050808301925050505050505091929192908035906020019064010000000081111561028b57600080fd5b82018360208201111561029d57600080fd5b803590602001918460018302840111640100000000831117156102bf57600080fd5b91908080601f016020809104026020016040519081016040528093929190818152602001838380828437600081840152601f19601f82011690508083019250505050505050919291929050505061094b565b604051808215151515815260200191505060405180910390f35b61047b6004803603604081101561034157600080fd5b810190808035906020019064010000000081111561035e57600080fd5b82018360208201111561037057600080fd5b8035906020019184600183028401116401000000008311171561039257600080fd5b91908080601f016020809104026020016040519081016040528093929190818152602001838380828437600081840152601f19601f820116905080830192505050505050509192919290803590602001906401000000008111156103f557600080fd5b82018360208201111561040757600080fd5b8035906020019184600183028401116401000000008311171561042957600080fd5b91908080601f016020809104026020016040519081016040528093929190818152602001838380828437600081840152601f19601f820116905080830192505050505050509192919290505050610961565b6040518082815260200191505060405180910390f35b61070f600480360360808110156104a757600080fd5b81019080803590602001906401000000008111156104c457600080fd5b8201836020820111156104d657600080fd5b803590602001918460018302840111640100000000831117156104f857600080fd5b91908080601f016020809104026020016040519081016040528093929190818152602001838380828437600081840152601f19601f8201169050808301925050505050505091929192908035906020019064010000000081111561055b57600080fd5b82018360208201111561056d57600080fd5b8035906020019184600183028401116401000000008311171561058f57600080fd5b91908080601f016020809104026020016040519081016040528093929190818152602001838380828437600081840152601f19601f820116905080830192505050505050509192919290803590602001906401000000008111156105f257600080fd5b82018360208201111561060457600080fd5b8035906020019184600183028401116401000000008311171561062657600080fd5b91908080601f016020809104026020016040519081016040528093929190818152602001838380828437600081840152601f19601f8201169050808301925050505050505091929192908035906020019064010000000081111561068957600080fd5b82018360208201111561069b57600080fd5b803590602001918460018302840111640100000000831117156106bd57600080fd5b91908080601f016020809104026020016040519081016040528093929190818152602001838380828437600081840152601f19601f820116905080830192505050505050509192919290505050610b80565b6040518080602001828103825283818151815260200191508051906020019080838360005b8381101561074f578082015181840152602081019050610734565b50505050905090810190601f16801561077c5780820380516001836020036101000a031916815260200191505b509250505060405180910390f35b600060608390506060839050600081518351106107a85781516107ab565b82515b905060008090505b818110156108f1578281815181106107c757fe5b602001015160f81c60f81b7effffffffffffffffffffffffffffffffffffffffffffffffffffffffffffff191684828151811061080057fe5b602001015160f81c60f81b7effffffffffffffffffffffffffffffffffffffffffffffffffffffffffffff1916101561085f577fffffffffffffffffffffffffffffffffffffffffffffffffffffffffffffffff945050505050610945565b82818151811061086b57fe5b602001015160f81c60f81b7effffffffffffffffffffffffffffffffffffffffffffffffffffffffffffff19168482815181106108a457fe5b602001015160f81c60f81b7effffffffffffffffffffffffffffffffffffffffffffffffffffffffffffff191611156108e4576001945050505050610945565b80806001019150506107b3565b50815183511015610927577fffffffffffffffffffffffffffffffffffffffffffffffffffffffffffffffff9350505050610945565b81518351111561093d5760019350505050610945565b600093505050505b92915050565b600080610958848461078a565b14905092915050565b60006060839050606083905060018251108061097e575060018151105b8061098a575081518151115b156109b9577fffffffffffffffffffffffffffffffffffffffffffffffffffffffffffffffff92505050610b7a565b6fffffffffffffffffffffffffffffffff825111156109fc577fffffffffffffffffffffffffffffffffffffffffffffffffffffffffffffffff92505050610b7a565b600080905060008090505b8351811015610b525782600081518110610a1d57fe5b602001015160f81c60f81b7effffffffffffffffffffffffffffffffffffffffffffffffffffffffffffff1916848281518110610a5657fe5b602001015160f81c60f81b7effffffffffffffffffffffffffffffffffffffffffffffffffffffffffffff19161415610b4557600191505b825182108015610aa057508351828201105b8015610b1d5750828281518110610ab357fe5b602001015160f81c60f81b7effffffffffffffffffffffffffffffffffffffffffffffffffffffffffffff19168483830181518110610aee57fe5b602001015160f81c60f81b7effffffffffffffffffffffffffffffffffffffffffffffffffffffffffffff1916145b15610b2f578180600101925050610a8e565b8251821415610b445780945050505050610b7a565b5b8080600101915050610a07565b507fffffffffffffffffffffffffffffffffffffffffffffffffffffffffffffffff93505050505b92915050565b6060808590506060859050606085905060608590506000825182518551845188510101010190506060816040519080825280601f01601f191660200182016040528015610bdc5781602001600182028038833980820191505090505b5090506060819050600080905060008090505b8851811015610c5d57888181518110610c0457fe5b602001015160f81c60f81b838380600101945081518110610c2157fe5b60200101907effffffffffffffffffffffffffffffffffffffffffffffffffffffffffffff1916908160001a9053508080600101915050610bef565b5084600081518110610c6b57fe5b602001015160f81c60f81b828280600101935081518110610c8857fe5b60200101907effffffffffffffffffffffffffffffffffffffffffffffffffffffffffffff1916908160001a90535060008090505b8751811015610d2b57878181518110610cd257fe5b602001015160f81c60f81b838380600101945081518110610cef57fe5b60200101907effffffffffffffffffffffffffffffffffffffffffffffffffffffffffffff1916908160001a9053508080600101915050610cbd565b5084600081518110610d3957fe5b602001015160f81c60f81b828280600101935081518110610d5657fe5b60200101907effffffffffffffffffffffffffffffffffffffffffffffffffffffffffffff1916908160001a90535060008090505b8651811015610df957868181518110610da057fe5b602001015160f81c60f81b838380600101945081518110610dbd57fe5b60200101907effffffffffffffffffffffffffffffffffffffffffffffffffffffffffffff1916908160001a9053508080600101915050610d8b565b50819850505050505050505094935050505056fea265627a7a72315820bd0a31a2075a808fca7ca65df0c32dd6ae5b3d3f3f71a0261dcbaa9632c40ca964736f6c634300050b0032",
  "source": "pragma solidity >= 0.4.21 < 0.6.0;\n\nlibrary StringUtils {\n    /// @dev Does a byte-by-byte lexicographical comparison of two strings.\n    /// @return a negative number if `_a` is smaller, zero if they are equal\n    /// and a positive numbe if `_b` is smaller.\n    function compare(string memory _a, string memory _b) public pure returns (int) {\n        bytes memory a = bytes(_a);\n        bytes memory b = bytes(_b);\n\n        uint minLength = a.length < b.length ? a.length : b.length;\n\n        for (uint i = 0; i < minLength; i ++) {\n            if (a[i] < b[i]) {\n                return -1;\n            } else if (a[i] > b[i]) {\n                return 1;\n            }\n        }\n\n        if (a.length < b.length) {\n            return -1;\n        } else if (a.length > b.length) {\n            return 1;\n        } else {\n            return 0;\n        }\n    }\n\n    /// @dev Compares two strings and returns true iff they are equal.\n    function equal(string memory _a, string memory _b) public pure returns (bool) {\n        return compare(_a, _b) == 0;\n    }\n\n    /// @dev Finds the index of the first occurrence of _needle in _haystack\n    function indexOf(string memory _haystack, string memory _needle) public pure returns (int) {\n        bytes memory h = bytes(_haystack);\n        bytes memory n = bytes(_needle);\n\n        if(h.length < 1 || n.length < 1 || (n.length > h.length)) {\n            return -1;\n        } else if(h.length > (2**128 - 1)) {\n            // since we have to be able to return -1 (if the char isn't found or input error), this function must return an \"int\" type with a max length of (2^128 - 1)\n            return -1;\n        } else {\n            uint subindex = 0;\n            for (uint i = 0; i < h.length; i ++) {\n                // found the first char of b\n                if (h[i] == n[0]) {\n                    subindex = 1;\n                    // search until the chars don't match or until we reach the end of a or b\n                    while(subindex < n.length && (i + subindex) < h.length && h[i + subindex] == n[subindex]) {\n                        subindex++;\n                    }\n\n                    if(subindex == n.length) {\n                        return int(i);\n                    }\n                }\n            }\n            return -1;\n        }\n    }\n\n\n    function concat3(\n        string memory _a,\n        string memory _b,\n        string memory _c,\n        string memory _sep\n    )\n        public pure\n        returns (string memory)\n    {\n        bytes memory a = bytes(_a);\n        bytes memory b = bytes(_b);\n        bytes memory c = bytes(_c);\n        bytes memory sep = bytes(_sep);\n\n        uint concatLength = a.length + sep.length + b.length + sep.length + c.length;\n        string memory concatedStr = new string(concatLength);\n        bytes memory concatedBytes = bytes(concatedStr);\n\n        uint k = 0;\n        for (uint i = 0; i < a.length; i++) {\n            concatedBytes[k++] = a[i];\n        }\n        concatedBytes[k++] = sep[0];\n        for (uint i = 0; i < b.length; i++) {\n            concatedBytes[k++] = b[i];\n        }\n        concatedBytes[k++] = sep[0];\n        for (uint i = 0; i < c.length; i++) {\n            concatedBytes[k++] = c[i];\n        }\n\n        return string(concatedBytes);\n    }\n}\n\n",
  "sourcePath": "/home/henrique/labs/janus-platform/packages/indexer-smartcontract/contracts/StringUtils.sol",
  "compiler": {
    "name": "solc",
    "version": "0.5.11+commit.c082d0b4.Emscripten.clang"
  },
  "schemaVersion": "3.0.16",
  "updatedAt": "2019-09-19T20:20:55.867Z",
  "devdoc": {
    "methods": {
      "compare(string,string)": {
        "details": "Does a byte-by-byte lexicographical comparison of two strings.",
        "return": "a negative number if `_a` is smaller, zero if they are equal and a positive numbe if `_b` is smaller."
      },
      "equal(string,string)": {
        "details": "Compares two strings and returns true iff they are equal."
      },
      "indexOf(string,string)": {
        "details": "Finds the index of the first occurrence of _needle in _haystack"
      }
    }
  },
  "userdoc": {
    "methods": {}
  }
}